:1000000019C033C032C031C030C02FC02EC02DC087
:100010002CC00FC32AC029C028C027C026C025C0B5
:1000200024C023C022C021C020C01FC01EC01DC0CC
:100030001CC01BC011241FBECFEFD2E0DEBFCDBF5E
:1000400011E0A0E0B1E0EEE0F7E002C005900D9213
:10005000A83CB107D9F721E0A8ECB1E001C01D929E
:10006000A83EB207E1F77CD250C3CACF8AB1806400
:100070008AB908958AB18F7B8AB908958AB1806858
:100080008AB908958AB18F778AB90895CF9389354F
:1000900031F0982F907FC82FC295C07F02C0CFEF5C
:1000A0009FEF92B9EBDF85E88A95F1F70000EADF70
:1000B00085E88A95F1F70000C2B9E0DF85E88A9506
:1000C000F1F70000DFDF85E88A95F1F70000DADF5D
:1000D000D1DF12B8CF91089581E0D8DF8FE99FE09A
:1000E0000197F1F700C00000089582E0CFDF8FE9AB
:1000F0009FE00197F1F700C000000895EF92FF9292
:100100000F931F93CF93DF937C01062F142FEDDF06
:10011000C0E0D0E00FC0812FB9DF85E08A95F1F70C
:100120000000A4DFF701EC0FFD1F8081AFDFA2DF2D
:100130001F5F2196802F90E0C817D90764F3DF91E5
:10014000CF911F910F91FF90EF900895462F6CE093
:10015000D0D28093CA0194E1981B9093C901109268
:10016000D20180E00BC0E2EDF1E001900020E9F760
:10017000319729E530E0318320838F5F9091CA0168
:10018000891788F380E00BC0E2EDF1E001900020D8
:10019000E9F731972FE530E0318320838F5F90912D
:1001A000C901891788F3E42FF0E0EE0FFF1FE0503C
:1001B000FF4F808191819093E7018093E60195DF65
:1001C000E7E4F1E001900020E9F73197BF016754BF
:1001D000714040E887E491E091DF8091C80181118E
:1001E00011C0E8E0F1E001900020E9F73197BF018C
:1001F0006850714040EC88E091E080DF81E08093BE
:10020000C8010DC0E2EDF1E001900020E9F731975F
:10021000BF01625D714040EC82ED91E06FDFEFE481
:10022000F1E001900020E9F73197BF016F54714070
:1002300044E98FE491E062DF8091E6019091E7016B
:10024000FC0101900020E9F73197BF01681B790B91
:1002500044ED54DF0895CF938CE018DF8FE99FE0E1
:100260000197F1F700C0000086E010DF8FE99FE002
:100270000197F1F700C000002FDF37DFEDE1F1E07B
:1002800001900020E9F73197BF016D51714040E8BE
:100290008DE191E033DFE1E3F1E001900020E9F747
:1002A0003197BF016153714040EC81E391E026DF5B
:1002B000C0E017C0E2EDF1E0DF010D900020E9F7AA
:1002C000119789E590E08D939C9301900020E9F7C8
:1002D0003197BF01625D714044E982ED91E00EDF2C
:1002E000CF5FC43138F3F8DE00DFCF910895BEDE72
:1002F000C5DE12B82FEF84E39CE02150804090408F
:10030000E1F700C00000BEDEB5DE2FEF84E39CE025
:10031000215080409040E1F700C0000080E3B6DE4D
:100320008FE295E70197F1F700C0000080E3AEDEB1
:100330008FE097E20197F1F700C0000080E3A6DEAE
:100340008FE99FE00197F1F700C0000080E29EDE98
:100350008FE99FE00197F1F700C000008CE096DE86
:100360008FE99FE00197F1F700C0000086E08EDE84
:100370008FE99FE00197F1F700C0000082E086DE80
:100380008FE99FE00197F1F700C00000A5DE089516
:10039000F999FECF1FBA81BD60BD8FB384608FBB5A
:1003A0008FB382608FBB0895F894F999FECF81BD19
:1003B0008FB381608FBB789480B5089586B18F77B5
:1003C00086B9089586B1806886B90895FBDF8AE80A
:1003D0008A95F1F700C0F2DF8AE88A95F1F700C04C
:1003E000089586B18F7B86B90895FBDF8AE88A95E8
:1003F000F1F700C0E3DF8AE88A95F1F700C00895BD
:1004000086B1806486B90895FBDFDCDF8AE88A95CF
:10041000F1F700C00895CF93DF9377D0D82FC0E0D5
:1004200008C0D0FF02C0ECDF01C0DBDFCFDFD69514
:10043000CF5FC830B0F3E4DFC9DFDF91CF9108951B
:10044000C1DF8AE88A95F1F700C0DADF8AE88A9589
:10045000F1F700C008951F93CF93DF93182FD62F85
:10046000C42FC3DF812FD7DF8D2FD5DF8C2FD3DFB4
:10047000E7DFDF91CF911F9108958FEF81B983B9A5
:1004800012B890EC95B987B916B899B98BB91AB862
:100490000895E4E6F0E080818E7F8083EAE7F0E073
:1004A000808180688083ADE7B0E08C911C92808170
:1004B00084608083EBE7F0E080818860808308952A
:1004C00080937C00EAE7F0E0808180648083809103
:1004D0007A0086FDFCCF809179000895E4E6F0E093
:1004E0008081877F8083E1E8F0E08081886080837D
:1004F0001092890010928800AFE6B0E08C91826083
:100500008C938081846080830895282F22952F709A
:1005100090E082959295907F9827807F9827922FE0
:10052000982B292F2C7C30E03595279535952795EC
:100530009373892F90E0880F991F880F991F822B42
:10054000282F2A7A30E035952795857590E0880F19
:10055000991F822B089588ED86BF1092610008953F
:10056000FADF8BDF96DFBADF4FDFC1DE789480E001
:100570001BDF8093D10140E066E088E86CDF40E05B
:1005800067E088E868DF40E062E088E864DF63DE17
:1005900088E096DF8093CF018BE092DF8093CE01DD
:1005A0008CE08EDF8093CD018DE08ADF8095809393
:1005B000CC011092D001439B03C081E08093D00115
:1005C000449B03C082E08093D001459B03C083E03D
:1005D0008093D0014091D00160E088E83CDF4091F9
:1005E000CF0142954F7061E088E835DF8091D101FD
:1005F000809579D0482F62E088E82DDF8091CE0188
:100600006AD0482F63E088E826DF8091CD0163D06F
:10061000482F64E088E81FDF8091CC015CD0482F30
:1006200065E088E818DF8091D1016091D0018EDD0E
:10063000AFCF1F920F920FB60F9211242F933F93BB
:100640004F935F936F937F938F939F93AF93BF93DA
:10065000EF93FF938091CB01882319F0813039F11A
:1006600029C0229B27C0219B11C08091D1018530D8
:1006700048F08091D10185508093D1016091D101E2
:1006800080E086DE81E08093CB0114C08091D101AF
:100690008B3F48F48091D1018B5F8093D1016091B1
:1006A000D10180E075DE81E08093CB0103C0229B05
:1006B0001092CB01FF91EF91BF91AF919F918F91DC
:1006C0007F916F915F914F913F912F910F900FBE4E
:1006D0000F901F90189582958F70E82FF0E0EC59DD
:1006E000FE4F8081089586958695893208F088E3CB
:1006F0000895991B79E004C0991F961708F0961B7E
:0E070000881F7A95C9F780950895F894FFCF69
:10070E00730188019D01B2015959595959595959C5
:10071E0059595959595959595959595F0020202039
:10072E0020202020202020202020202020202020BB
:10073E0000202020202020204C6F6164696E6720ED
:10074E0020202020202000564F4C554D453A004980
:10075E004E5055543A2020202020202020202020AA
:10076E002020200000010203040506070E0D0C0BCD
:10077E000A0908205B585D20205B5F5D20205B5FCF
:10078E005D20205B5F5D2000205B5F5D20205B585D
:10079E005D20205B5F5D20205B5F5D2000205B5F46
:1007AE005D20205B5F5D20205B585D20205B5F5DE0
:1007BE002000205B5F5D20205B5F5D20205B5F5D26
:0807CE0020205B585D200000B3
:00000001FF
