:1000000019C033C032C031C030C02FC02EC02DC087
:100010002CC02BC02AC029C028C027C026C025C09C
:1000200024C023C022C021C020C01FC01EC01DC0CC
:100030001CC01BC011241FBECFEFD2E0DEBFCDBF5E
:1000400011E0A0E0B1E0E2E7F6E002C005900D9219
:10005000AE33B107D9F721E0AEE3B1E001C01D92A4
:10006000A034B207E1F790D202C3CACF8AB180644C
:100070008AB908958AB18F7B8AB908958AB1806858
:100080008AB908958AB18F778AB9089582B9F6DF5F
:1000900086EA8A95F1F700C0F5DF86EA8A95F1F7DE
:1000A00000C0F0DFE7DF12B80895CF93982F907F5C
:1000B000C82FC295C07F92B9E1DF83EF91E001972D
:1000C000F1F700C00000DEDF83EF91E00197F1F768
:1000D00000C00000C2B9D2DF83EF91E00197F1F7D1
:1000E00000C00000CFDF83EF91E00197F1F700C07F
:1000F0000000C8DFBFDF12B8CF91089581E0D5DFDF
:1001000083EF91E00197F1F700C00000089582E0CD
:10011000CCDF83EF91E00197F1F700C00000089574
:10012000EF92FF920F931F93CF93DF937C01062FE3
:10013000142FEDDFC0E0D0E011C0812FB6DF83EFD8
:1001400091E00197F1F700C0000090DFF701EC0F9C
:10015000FD1F8081AADF8EDF1F5F2196802F90E038
:10016000C817D90754F3DF91CF911F910F91FF90DA
:10017000EF9008950F931F93CF93DF93CDB7DEB722
:10018000E7970FB6F894DEBF0FBECDBF162F97E0EE
:10019000EEE2F1E0DE01119601900D929A95E1F701
:1001A00098E0E5E3F1E0DE01189601900D929A9552
:1001B000E1F76DE050D2082F482F54E1581B188A00
:1001C00080E090E00BC0FE01709601900020E9F7FE
:1001D000319728E530E0318320830196242F30E0E9
:1001E0008217930784F380E090E00BC0FE017096C5
:1001F00001900020E9F731972FE530E0318320832B
:100200000196252F30E08217930784F3113031F1E6
:1002100038F0123009F442C0133009F45FC07BC0DB
:10022000DE01949680E29BE59DA38CA312961C921E
:100230001297FD0101900020E9F7319788E590E0E1
:10024000918380830D900020E9F7119782E1E0E02F
:10025000F1E001900D928A95E1F75DC0CE018496A0
:100260002AE0E2E1F1E0DC0101900D922A95E1F74C
:10027000FC0101900020E9F7319728E530E0318357
:100280002083DC010D900020E9F711978DE0E5E077
:10029000F1E001900D928A95E1F73DC0CE01849680
:1002A0002DE0E1E2F1E0DC0101900D922A95E1F709
:1002B000FC0101900020E9F7319728E530E0318317
:1002C0002083DC010D900020E9F7119788E0EAE037
:1002D000F1E001900D928A95E1F71DC0CE01849660
:1002E00022E1ECE1F1E0DC0101900D922A95E1F7C9
:1002F000FC0101900020E9F7319728E530E03183D7
:100300002083FC0101900020E9F731978DE590E210
:1003100091838083128280913F01181304C08091E1
:100320003E01841708F4EADECE010896FC01019034
:100330000020E9F73197BF01681B790B40E8F0DE38
:10034000CE014096FC0101900020E9F73197BF01F2
:10035000681B790B40ECE4DECE010196FC010190B4
:100360000020E9F73197BF01681B790B44E9D8DE1B
:10037000CE018496FC0101900020E9F73197BF017E
:10038000681B790B44EDCCDE10933F0100933E01D6
:10039000E7960FB6F894DEBF0FBECDBFDF91CF91C9
:1003A0001F910F91089562DE69DE12B883ED90E32C
:1003B0000197F1F700C0000065DE5CDE80E366DED9
:1003C00081EE94E00197F1F700C0000080E35EDE6B
:1003D00083EF91E00197F1F700C0000080E356DE63
:1003E00083EF91E00197F1F700C0000080E24EDE5C
:1003F00083EF91E00197F1F700C0000088E255DE3D
:1004000083EF91E00197F1F700C000008CE04DDE32
:1004100083EF91E00197F1F700C0000081E045DE35
:1004200083EF91E00197F1F700C0000086E03DDE28
:1004300083EF91E00197F1F700C0000082E035DE24
:1004400083EF91E00197F1F700C000009FE32DE0FA
:1004500083E0915020408040E1F700C00000089503
:1004600086B18F7B86B9089586B1806486B9089578
:10047000FBDF81E28A95F1F70000F2DF81E28A95E5
:10048000F1F70000089586B18F7786B90895FBDFF4
:1004900081E28A95F1F70000E3DF81E28A95F1F7C6
:1004A0000000089586B1806886B90895FBDFDCDF1F
:1004B00081E28A95F1F700000895CF93DF93A5D0EC
:1004C000D82FC0E008C0D0FF02C0ECDF01C0DBDFE6
:1004D000CFDFD695CF5FC830B0F3E4DFC9DFDF915F
:1004E000CF910895C1DF81E28A95F1F70000DADF4C
:1004F00081E28A95F1F7000008951F93CF93DF936F
:10050000182FD62FC42FC3DF812FD7DF8D2FD5DF34
:100510008C2FD3DFE7DFDF91CF911F9108958FEF0D
:1005200081B983B912B890EC95B987B916B899B961
:100530008BB91AB80895E4E6F0E080818E7F80835D
:10054000EAE7F0E0808180688083ADE7B0E08C91DD
:100550001C92808184608083EBE7F0E0808188607A
:1005600080830895ECE7F0E09081892B8083EDE7AC
:10057000F0E080818E7F8083EAE7F0E08081806414
:100580008083809179000895CADFD5DF8FDF0BDF8C
:10059000D0E088E0E7DFC82F8BE0E4DFF82E8CE0C6
:1005A000E1DF082F8DE0DEDF182F8AB18C738830F1
:1005B00049F018F4843061F00CC0803129F08032A9
:1005C00029F007C0D1E005C0D2E003C0D3E001C0EC
:1005D000D0E04D2F60E088E890DF4C2F61E088E8A4
:1005E0008CDF40E062E088E888DF4F2D63E088E838
:1005F00084DF402F64E088E880DF412F65E088E8F1
:100600007CDF6D2F8C2FB6DDC4CF282F22952F7065
:1006100090E082959295907F9827807F9827922FDF
:10062000982B292F2C7C30E03595279535952795EB
:100630009373892F90E0880F991F880F991F822B41
:10064000282F2A7A30E035952795857590E0880F18
:10065000991F822B0895991B79E004C0991F961762
:1006600008F0961B881F7A95C9F780950895F8942D
:02067000FFCFBA
:100672005D20205B5F5D20205B5F5D20205B5F5D16
:100682002000205B5F5D20205B5F5D00205B5F5D83
:1006920020205B5F5D20205B5F5D20205B00494E78
:0E06A2005055543A00564F4C554D453A000005
:00000001FF
