S01D0000507261637469636520456E746572707269736520322E7372656349
S113000019C020C01FC01EC01DC01CC01BC01AC008
S113001019C018C017C016C015C014C013C012C030
S113002011C010C00FC00EC00DC00CC00BC00AC060
S113003009C008C011241FBECFEFD2E0DEBFCDBF80
S113004043D15CC1DDCF8AB180648AB908958AB195
S11300508F7B8AB908958AB180688AB908958AB174
S11300608F778AB90895CF93F2DFF9DF83ED90E3B8
S11300700197F1F700C00000EEDFE5DF90E19A950B
S1130080F1F700C0C7ECC2B980E18A95F1F700C06E
S1130090E6DF90E19A95F1F700C081EE94E00197D4
S11300A0F1F700C00000D7DF90E19A95F1F700C0A6
S11300B0C2B980E18A95F1F700C0D1DF90E19A9549
S11300C0F1F700C083E58A95F1F70000C4DF90E101
S11300D09A95F1F700C0C2B980E18A95F1F700C0A2
S11300E0BEDF90E19A95F1F700C083E58A95F1F7B8
S11300F00000B1DF90E19A95F1F700C081EF82B979
S113010080E18A95F1F700C0AADF90E19A95F1F7B2
S113011000C083E58A95F1F700009DDF90E19A9590
S1130120F1F700C08EEF82B980E18A95F1F700C043
S113013096DF90E19A95F1F700C083EF91E0019783
S1130140F1F700C0000087DF90E19A95F1F700C055
S11301508AEF82B980E18A95F1F700C080DF77DF0A
S113016090E19A95F1F700C083E58A95F1F70000D4
S1130170CF91089570DF80E18A95F1F700C08FE791
S113018082B980E18A95F1F700C069DF80E18A9540
S1130190F1F700C083E58A95F1F70000089586B170
S11301A08F7B86B9089586B1806486B9089586B137
S11301B08F7786B9089586B1806886B90895FBDF84
S11301C0F2DF81E18A95F1F700000895CF93DF9380
S11301D0D82FEDDF81E18A95F1F70000E0DF81E1BE
S11301E08A95F1F70000C0E011C0D0FF02C0E3DF40
S11301F001C0DDDFD8DF81E18A95F1F70000CFDFB0
S113020081E18A95F1F70000D695CF5FC83068F395
S1130210CEDFC9DF81E18A95F1F70000C0DF81E11B
S11302208A95F1F70000C7DF81E18A95F1F70000B4
S1130230DF91CF910895BFDFB6DF81E18A95F1F7B1
S113024000000895CF93DF93D62FC42FBFDF8D2FE7
S1130250BDDF8C2FBBDFEFDFDF91CF9108958FEFF0
S113026081B983B912B890EC95B987B916B899B920
S11302708BB91AB80895E4E6F0E080818E7F80831C
S1130280EAE7F0E0808180688083ADE7B0E08C919C
S11302901C92808184608083EBE7F0E08081886039
S11302A080830895ECE7F0E09081892B8083EDE76B
S11302B0F0E080818E7F8083EAE7F0E080818064D3
S11302C08083809179000895CADFD5DF78DFCBDEA3
S11302D088E0E8DF8BE0E6DF8CE0E4DF8DE0E2DF5E
S11302E040E060E080E8AEDF83EC99E00197F1F74D
S11302F000C000006FEF80E03DDFEACFF894FFCF4D
S9030000FC
