:1000000019C020C01FC01EC01DC01CC01BC01AC00C
:1000100019C018C017C016C015C014C013C012C034
:1000200011C010C00FC00EC00DC00CC00BC00AC064
:1000300009C008C011241FBECFEFD2E0DEBFCDBF84
:1000400068D1A7C1DDCF8AB180648AB908958AB129
:100050008F7B8AB908958AB180688AB908958AB178
:100060008F778AB9089582B9F6DF86EA8A95F1F723
:1000700000C0F5DF86EA8A95F1F700C0F0DFE7DF20
:1000800012B80895CF93982F907FC82FC295C07F44
:1000900092B9E1DF83EF91E00197F1F700C0000032
:1000A000DEDF83EF91E00197F1F700C00000C2B9F5
:1000B000D2DF83EF91E00197F1F700C00000CFDFBE
:1000C00083EF91E00197F1F700C00000C8DFBFDFC8
:1000D00012B8CF91089581E0D5DF83EF91E00197C9
:1000E000F1F700C00000089582E0CCDF83EF91E0DB
:1000F0000197F1F700C000000895CF93C82FF4DFF7
:10010000EADF80E8BFDF83EF91E00197F1F700C0FD
:10011000000099DF8C2FB6DF9ADF9FE32DE083E0AC
:10012000915020408040E1F700C00000CF91089539
:100130008ADF91DF12B883ED90E30197F1F700C0F9
:1001400000008DDF84DF80E38EDF81EE94E0019795
:10015000F1F700C0000080E386DF83EF91E00197B4
:10016000F1F700C0000080E37EDF83EF91E00197AC
:10017000F1F700C0000080E276DF83EF91E00197A5
:10018000F1F700C0000088E27DDF83EF91E0019786
:10019000F1F700C000008FE075DF83EF91E0019779
:1001A000F1F700C0000081E06DDF83EF91E001977F
:1001B000F1F700C0000086E065DF83EF91E0019772
:1001C000F1F700C0000082E05DDF83EF91E001976E
:1001D000F1F700C000009FE32DE083E09150204044
:1001E0008040E1F700C00000089586B18F7B86B99A
:1001F000089586B1806486B90895FBDF81E28A950F
:10020000F1F70000F2DF81E28A95F1F7000008952E
:1002100086B18F7786B90895FBDF81E28A95F1F781
:100220000000E3DF81E28A95F1F70000089586B1CE
:10023000806886B90895FBDFDCDF81E28A95F1F7FB
:1002400000000895CF93DF937ED0D82FC0E008C080
:10025000D0FF02C0ECDF01C0DBDFCFDFD695CF5F80
:10026000C830B0F3E4DFC9DFDF91CF910895C1DF7B
:1002700081E28A95F1F70000DADF81E28A95F1F7F1
:10028000000008951F93CF93DF93182FD62FC42F0C
:10029000C3DF812FD7DF8D2FD5DF8C2FD3DFE7DFB3
:1002A000DF91CF911F9108958FEF81B983B912B873
:1002B00090EC95B987B916B899B98BB91AB8089561
:1002C000E4E6F0E080818E7F8083EAE7F0E08081E1
:1002D00080688083ADE7B0E08C911C92808184605F
:1002E0008083EBE7F0E08081886080830895ECE70D
:1002F000F0E09081892B8083EDE7F0E080818E7FB4
:100300008083EAE7F0E080818064808380917900D7
:100310000895CADFD5DF8FDF0BDF88E0E8DF8BE0F1
:10032000E6DF8CE0E4DF8DE0E2DF8AB142E862E8FC
:1003300088E8A8DF83EC99E00197F1F700C000009E
:100340008FE0DBDEEACF282F22952F7090E0829598
:100350009295907F9827807F9827922F982B292F0E
:100360002C7C30E035952795359527959373892F0B
:1003700090E0880F991F880F991F822B282F2A7AC7
:1003800030E035952795857590E0880F991F822B71
:060390000895F894FFCF70
:00000001FF
