:1000000019C020C01FC01EC01DC01CC01BC01AC00C
:1000100019C018C017C016C015C014C013C012C034
:1000200011C010C00FC00EC00DC00CC00BC00AC064
:1000300009C008C011241FBECFEFD2E0DEBFCDBF84
:10004000FED00DC1DDCF86B116B8089586B18068A7
:1000500086B9089586B116B8089586B1806486B9C8
:100060000895FBDFF3DF80E18A95F1F700C0089582
:10007000FF920F931F93CF93DF93F82E062F142F29
:10008000C0E0D0E01BC0DFDF80E18A95F1F700C05F
:100090008F2D8170813031F4E0DF80E18A95F1F7B6
:1000A00000C005C0D7DF80E18A95F1F700C0F69463
:1000B000CDDF80E18A95F1F700C02196C830D105E7
:1000C00014F3CBDFC0DF80E18A95F1F700C0BEDF1B
:1000D00080E18A95F1F700C0B6DF80E18A95F1F7FB
:1000E00000C0B4DF80E18A95F1F700C0C0E0D0E045
:1000F0001BC0A9DF80E18A95F1F700C0802F8170D5
:10010000813031F4AADF80E18A95F1F700C005C0A3
:10011000A1DF80E18A95F1F700C0069597DF80E1C5
:100120008A95F1F700C02196C830D10514F395DF08
:100130008ADF80E18A95F1F700C088DF80E18A9547
:10014000F1F700C080DF80E18A95F1F700C07EDF23
:1001500080E18A95F1F700C0C0E0D0E01BC073DFFA
:1001600080E18A95F1F700C0812F8170813031F4F0
:1001700074DF80E18A95F1F700C005C06BDF80E194
:100180008A95F1F700C0169561DF80E18A95F1F755
:1001900000C02196C830D10514F35FDF54DF80E141
:1001A0008A95F1F700C052DF80E18A95F1F700C02F
:1001B0004ADF80E18A95F1F700C048DF80E18A9547
:1001C000F1F700C04ADF42DFDF91CF911F910F911D
:1001D000FF9008958FEF81B983B982B990EC95B9FA
:1001E00087B996B999B98BB99AB90895E4E6F0E060
:1001F00080818E7F8083EAE7F0E080818068808361
:10020000ADE7B0E08C911C92808184608083EBE745
:10021000F0E08081886080830895ECE7F0E09081D1
:10022000892B8083EDE7F0E080818E7F8083EAE791
:10023000F0E0808180648083809179000895CADF36
:10024000D5DF0FDF88E0E9DF8BE0E7DF8CE0E5DF7B
:100250008DE0E3DF40E060E088E80ADFF3CFF89468
:02026000FFCFCE
:00000001FF
