S01D0000507261637469636520456E746572707269736520322E7372656349
S113000019C033C032C031C030C02FC02EC02DC083
S11300102CC0EEC22AC029C028C027C026C025C0D3
S113002024C023C022C021C020C01FC01EC01DC0C8
S11300301CC01BC011241FBECFEFD2E0DEBFCDBF5A
S113004011E0A0E0B1E0ECE8F6E002C005900D920A
S1130050AE36B107D9F721E0AEE6B1E001C01D929A
S1130060AD38B207E1F745D20FC3CACF8AB1806475
S11300708AB908958AB18F7B8AB908958AB1806854
S11300808AB908958AB18F778AB9089582B9F6DF5B
S113009085E88A95F1F70000F5DF85E88A95F1F7A0
S11300A00000F0DFE7DF12B80895CF93893531F00F
S11300B0982F907FC82FC295C07F02C0CFEF9FEFCB
S11300C092B9DCDF85E88A95F1F70000DBDF85E88B
S11300D08A95F1F70000C2B9D1DF85E88A95F1F776
S11300E00000D0DF85E88A95F1F70000CBDFC2DF9E
S11300F012B8CF91089581E0D8DF8FE99FE001978E
S1130100F1F700C00000089582E0CFDF8FE99FE09F
S11301100197F1F700C000000895EF92FF920F934A
S11301201F93CF93DF937C01062F142FEDDFC0E0E4
S1130130D0E011C0812FB9DF8FE99FE00197F1F77B
S113014000C0000093DFF701EC0FFD1F8081ADDFDD
S113015091DF1F5F2196802F90E0C817D90754F3D1
S1130160DF91CF911F910F91FF90EF900895462F4B
S11301706CE07ED280936F0194E1981B90936E01A2
S11301801092770120E030E00CC0E7E7F1E0019045
S11301900020E9F7319789E590E0918380832F5F10
S11301A03F4F80916F0190E02817390774F320E0E6
S11301B030E00CC0E7E7F1E001900020E9F7319767
S11301C08FE590E0918380832F5F3F4F80916E0194
S11301D090E02817390774F3E42FF0E0EE0FFF1FC7
S11301E0E050FF4F8081918190938C0180938B012B
S11301F0E7E7F1E001900020E9F73197BF01675785
S1130200714040EC87E791E088DF80918B01909109
S11302108C01FC0101900020E9F73197BF01681BB4
S1130220790B44ED7ADF089521DF28DF12B82FEF30
S113023084E39CE0215080409040E1F700C000003E
S113024021DF18DF2FEF84E39CE0215080409040B1
S1130250E1F700C0000080E319DF8FE097E2019727
S1130260F1F700C0000080E311DF8FE99FE0019700
S1130270F1F700C0000080E309DF8FE99FE00197F8
S1130280F1F700C0000080E201DF8FE99FE00197F1
S1130290F1F700C0000088E208DF8FE99FE00197D2
S11302A0F1F700C000008CE000DF8FE99FE00197C8
S11302B0F1F700C0000081E0F8DE8FE99FE00197CC
S11302C0F1F700C0000086E0F0DE8FE99FE00197BF
S11302D0F1F700C0000082E0E8DE8FE99FE00197BB
S11302E0F1F700C0000007DFE8E0F1E00190002032
S11302F0E9F73197BF016850714040E888E091E028
S11303000CDFE3E1F1E001900020E9F73197BF0150
S11303106351714044E983E191E0FFDE0895F8946C
S1130320F999FECF1FBA81BD60BD8FB384608FBBC6
S11303308FB382608FBB78940895F894F999FECFB7
S113034081BD8FB381608FBB789480B5089586B1E9
S11303508F7786B9089586B1806886B90895FBDFE2
S11303608AE88A95F1F700C0F2DF8AE88A95F1F706
S113037000C0089586B18F7B86B90895FBDF8AE8B3
S11303808A95F1F700C0E3DF8AE88A95F1F700C0A7
S1130390089586B1806486B90895FBDFDCDF8AE8BE
S11303A08A95F1F700C00895CF93DF9377D0D82FC3
S11303B0C0E008C0D0FF02C0ECDF01C0DBDFCFDF4C
S11303C0D695CF5FC830B0F3E4DFC9DFDF91CF91BA
S11303D00895C1DF8AE88A95F1F700C0DADF8AE878
S11303E08A95F1F700C008951F93CF93DF93182FD8
S11303F0D62FC42FC3DF812FD7DF8D2FD5DF8C2FCE
S1130400D3DFE7DFDF91CF911F9108958FEF81B99B
S113041083B912B890EC95B987B916B899B98BB964
S11304201AB80895E4E6F0E080818E7F8083EAE7DD
S1130430F0E0808180688083ADE7B0E08C911C920D
S1130440808184608083EBE7F0E080818860808332
S1130450089580937C00EAE7F0E0808180648083E3
S113046080917A0086FDFCCF809179000895E4E6BE
S1130470F0E08081877F8083E1E8F0E0808188601C
S113048080831092890010928800AFE6B0E08C91CE
S113049082608C938081836080830895282F2295C5
S11304A02F7090E082959295907F9827807F98276F
S11304B0922F982B292F2C7C30E035952795359554
S11304C027959373892F90E0880F991F880F991FA0
S11304D0822B282F2A7A30E035952795857590E070
S11304E0880F991F822B089588ED86BF10926100B2
S11304F00895FADF8BDF96DFBADF4FDF95DE78945D
S113050080E01BDF8093760140E066E088E86CDFE2
S113051040E067E088E868DF40E062E088E864DFA4
S113052088E097DF809374018BE093DF80937301FD
S11305308CE08FDF809372018DE08BDF8095809358
S1130540710190917301913818F090E890937301C0
S113055090917201913818F090E89093720181386B
S113056018F080E88093710110927501439B03C0D9
S113057081E080937501449B03C082E08093750100
S1130580459B03C083E0809375014091750160E051
S113059088E82ADF8091740165D0482F61E088E8FB
S11305A023DF80917601809560D0482F62E088E84F
S11305B01BDF8091730156D0482F63E088E814DF75
S11305C0809172014FD0482F64E088E80DDF80915C
S11305D0710148D0482F65E088E806DF80917601F4
S11305E060917501C4DD6091760180E098DE98CF5A
S11305F01F920F920FB60F9211248F939F9392B173
S113060082E0892782B980917001882319F08130B2
S1130610F9F021C0229B1FC0219B0DC0809176015F
S1130620853028F08091760185508093760181E0B1
S11306308093700110C0809176018B3F28F48091E3
S113064076018B5F8093760181E08093700103C013
S1130650229B109270019F918F910F900FBE0F906B
S11306601F90189582958F700895869586950895A4
S1130670991B79E004C0991F961708F0961B881FF0
S10F06807A95C9F780950895F894FFCF8F
S113068C1A012F0144015901564F4C554D453A203E
S113069C202000494E5055543A00205B585D2020D0
S11306AC5B5F5D20205B5F5D20205B5F5D20002035
S11306BC5B5F5D20205B585D20205B5F5D20205BD1
S11306CC5F5D2000205B5F5D20205B5F5D20205B15
S11306DC585D20205B5F5D2000205B5F5D20205B0C
S11106EC5F5D20205B5F5D20205B585D200079
S9030000FC
