:1000000019C020C01FC01EC01DC01CC01BC01AC00C
:1000100019C018C017C016C015C014C013C012C034
:1000200011C010C00FC00EC00DC00CC00BC00AC064
:1000300009C008C011241FBECFEFD2E0DEBFCDBF84
:10004000AFD0BBC0DDCF8AB18F7B8AB908958AB1AA
:1000500080688AB908958AB18F778AB90895CF9355
:10006000FADFF1DF85EA9EE00197F1F700C00000BA
:10007000EEDFCFECC2B991E29A95F1F70000EBDF29
:1000800081EE94E00197F1F700C00000E0DFC2B913
:1000900091E29A95F1F70000DEDF22E32A95F1F76D
:1000A000D6DFC2B981E28A95F1F70000D4DF92E38E
:1000B0009A95F1F7CCDF87EC82B921E22A95F1F726
:1000C0000000C9DFC4DF87EF82B981E28A95F1F7CA
:1000D0000000C1DFBCDF8EEF82B991E29A95F1F7A3
:1000E0000000B9DFB4DF88EF82B921E22A95F1F789
:1000F0000000B1DF8FE392E42FE081509040204078
:10010000E1F700C00000A3DF80EF82B982E38A95A7
:10011000F1F7A1DFCF91089586B1806486B9089583
:1001200086B1806886B90895FBDFF6DF81E18A95A4
:10013000F1F7000008958FEF81B983B982B990EC8F
:1001400095B987B996B999B98BB99AB90895E4E682
:10015000F0E080818E7F8083EAE7F0E08081806834
:100160008083ADE7B0E08C911C92808184608083B5
:10017000EBE7F0E08081886080830895ECE7F0E0B1
:100180009081892B8083EDE7F0E080818E7F8083F2
:10019000EAE7F0E0808180648083809179000895AF
:1001A000CADFD5DFC1DF5BDF88E0E8DF8BE0E6DFB9
:0E01B0008CE0E4DF8DE0E2DFF7CFF894FFCFC4
:00000001FF
