:1000000019C020C01FC01EC01DC01CC01BC01AC00C
:1000100019C018C017C016C015C014C013C012C034
:1000200011C010C00FC00EC00DC00CC00BC00AC064
:1000300009C008C011241FBECFEFD2E0DEBFCDBF84
:10004000DFD0F5C0DDCF8AB180648AB908958AB166
:1000500080688AB90895CF9385EA9EE00197F1F709
:1000600000C00000F4DFEFDFCFECC2B981EE94E016
:100070000197F1F700C00000E6DFC2B992E39A955C
:10008000F1F7E1DFC2B922E32A95F1F7DCDF87EC73
:1000900082B982E38A95F1F787EF82B992E39A9564
:1000A000F1F78EEF82B922E32A95F1F788EF82B952
:1000B00082E38A95F1F79FE32DE083E091502040A1
:1000C0008040E1F700C0000080EF82B992E39A958A
:1000D000F1F7CF91089586B18F7B86B9089586B1E7
:1000E000806486B9089586B18F7786B9089586B100
:1000F000806886B90895FBDFF2DF81E18A95F1F728
:1001000000000895CF93DF93D82FEDDF81E18A952A
:10011000F1F70000E0DF81E18A95F1F70000C0E02F
:1001200011C0D0FF02C0E3DF01C0DDDFD8DF81E115
:100130008A95F1F70000CFDF81E18A95F1F70000A1
:10014000D695CF5FC83068F3CEDFC9DF81E18A95ED
:10015000F1F70000C0DF81E18A95F1F70000C7DF09
:1001600081E18A95F1F70000DF91CF910895BFDF1B
:10017000B6DF81E18A95F1F700000895CF93DF9310
:10018000D62FC42FBFDF8D2FBDDF8C2FBBDFEFDF5E
:10019000DF91CF9108958FEF81B983B982B990EC47
:1001A00095B987B996B999B98BB99AB90895E4E622
:1001B000F0E080818E7F8083EAE7F0E080818068D4
:1001C0008083ADE7B0E08C911C9280818460808355
:1001D000EBE7F0E08081886080830895ECE7F0E051
:1001E0009081892B8083EDE7F0E080818E7F808392
:1001F000EAE7F0E08081806480838091790008954F
:10020000CADFD5DF78DF27DF88E0E8DF8BE0E6DFD5
:100210008CE0E4DF8DE0E2DF40E060E080E8AEDF2C
:1002200083EC99E00197F1F700C00000EDCFF8945E
:02023000FFCFFE
:00000001FF
