:1000000019C020C01FC01EC01DC01CC01BC01AC00C
:1000100019C018C017C016C015C014C013C012C034
:1000200011C010C00FC00EC00DC00CC00BC00AC064
:1000300009C008C011241FBECFEFD2E0DEBFCDBF84
:10004000F7D010C1DDCF8AB18F7B8AB908958AB10C
:1000500080688AB908958AB18F778AB90895FBDFDD
:10006000F2DF85EA9EE00197F1F700C00000EFDFC4
:1000700087EC82B990E19A95F1F700C0ECDFE7DFF9
:1000800084EF82B980E18A95F1F700C0E4DFDFDF19
:1000900080EF82B990E19A95F1F700C0DCDFD7DFFD
:1000A0008EEF82B980E18A95F1F700C0D4DFCFDF0F
:1000B0008DEF82B990E19A95F1F700C0CCDF0895F9
:1000C000C6DF80EF82B920E12A95F1F700C0C3DFD7
:1000D0008FE996E821E0815090402040E1F700C090
:1000E0000000B5DF84EF82B980E18A95F1F700C0A6
:1000F000B2DF9FE926E881E0915020408040E1F79F
:1001000000C00000089586B18F7B86B9089586B13E
:10011000806486B9089586B18F7786B9089586B1CF
:10012000806886B90895FBDFF2DF81E18A95F1F7F7
:1001300000000895CF93DF93D82FEDDF81E18A95FA
:10014000F1F70000E0DF81E18A95F1F70000C0E0FF
:1001500011C0D0FF02C0E3DF01C0DDDFD8DF81E1E5
:100160008A95F1F70000CFDF81E18A95F1F7000071
:10017000D695CF5FC83068F3CEDFC9DF81E18A95BD
:10018000F1F70000C0DF81E18A95F1F70000C7DFD9
:1001900081E18A95F1F70000DF91CF910895BFDFEB
:1001A000B6DF81E18A95F1F700000895CF93DF93E0
:1001B000D62FC42FBFDF8D2FBDDF8C2FBBDFEFDF2E
:1001C000DF91CF9108958FEF81B983B912B890EC88
:1001D00095B987B916B899B98BB91AB80895E4E6F4
:1001E000F0E080818E7F8083EAE7F0E080818068A4
:1001F0008083ADE7B0E08C911C9280818460808325
:10020000EBE7F0E08081886080830895ECE7F0E020
:100210009081892B8083EDE7F0E080818E7F808361
:10022000EAE7F0E08081806480838091790008951E
:10023000CADFD5DF78DF13DF88E0E8DF8BE0E6DFB9
:100240008CE0E4DF8DE0E2DF40E060E080E8AEDFFC
:1002500083EC99E00197F1F700C000006FEF80E0B8
:080260002FDFEACFF894FFCF75
:00000001FF
