:1000000019C033C032C031C030C02FC02EC02DC087
:100010002CC0DBC22AC029C028C027C026C025C0EA
:1000200024C023C022C021C020C01FC01EC01DC0CC
:100030001CC01BC011241FBECFEFD2E0DEBFCDBF5E
:1000400011E0A0E0B1E0E6E7F6E002C005900D9215
:10005000AE37B107D9F721E0AEE7B1E001C01D929C
:10006000AD39B207E1F745D204C3CACF8AB1806483
:100070008AB908958AB18F7B8AB908958AB1806858
:100080008AB908958AB18F778AB9089582B9F6DF5F
:1000900085E88A95F1F70000F5DF85E88A95F1F7A4
:1000A0000000F0DFE7DF12B80895CF93893531F013
:1000B000982F907FC82FC295C07F02C0CFEF9FEFCF
:1000C00092B9DCDF85E88A95F1F70000DBDF85E88F
:1000D0008A95F1F70000C2B9D1DF85E88A95F1F77A
:1000E0000000D0DF85E88A95F1F70000CBDFC2DFA2
:1000F00012B8CF91089581E0D8DF8FE99FE0019792
:10010000F1F700C00000089582E0CFDF8FE99FE0A3
:100110000197F1F700C000000895EF92FF920F934E
:100120001F93CF93DF937C01062F142FEDDFC0E0E8
:10013000D0E011C0812FB9DF8FE99FE00197F1F77F
:1001400000C0000093DFF701EC0FFD1F8081ADDFE1
:1001500091DF1F5F2196802F90E0C817D90754F3D5
:10016000DF91CF911F910F91FF90EF900895462F4F
:100170006CE073D280937F0194E1981B90937E0191
:100180001092870120E030E00CC0E7E8F1E0019038
:100190000020E9F7319789E590E0918380832F5F14
:1001A0003F4F80917F0190E02817390774F320E0DA
:1001B00030E00CC0E7E8F1E001900020E9F731976A
:1001C0008FE590E0918380832F5F3F4F80917E0188
:1001D00090E02817390774F3E42FF0E0EE0FFF1FCB
:1001E000E050FF4F8081918190939C0180939B010F
:1001F000E7E8F1E001900020E9F73197BF01675887
:10020000714040EC87E891E088DF80919B019091FC
:100210009C01FC0101900020E9F73197BF01681BA8
:10022000790B44ED7ADF089521DF28DF12B82FEF34
:1002300084E39CE0215080409040E1F700C0000042
:1002400021DF18DF2FEF84E39CE0215080409040B5
:10025000E1F700C0000080E319DF8FE097E201972B
:10026000F1F700C0000080E311DF8FE99FE0019704
:10027000F1F700C0000080E309DF8FE99FE00197FC
:10028000F1F700C0000080E201DF8FE99FE00197F5
:10029000F1F700C0000088E208DF8FE99FE00197D6
:1002A000F1F700C000008CE000DF8FE99FE00197CC
:1002B000F1F700C0000081E0F8DE8FE99FE00197D0
:1002C000F1F700C0000086E0F0DE8FE99FE00197C3
:1002D000F1F700C0000082E0E8DE8FE99FE00197BF
:1002E000F1F700C0000007DFE8E0F1E00190002036
:1002F000E9F73197BF016850714040E888E091E02C
:100300000CDFE3E1F1E001900020E9F73197BF0154
:100310006351714044E983E191E0FFDE0895F89470
:10032000F999FECF1FBA81BD60BD8FB384608FBBCA
:100330008FB382608FBB78940895F894F999FECFBB
:1003400081BD8FB381608FBB789480B5089586B1ED
:100350008F7786B9089586B1806886B90895FBDFE6
:100360008AE88A95F1F700C0F2DF8AE88A95F1F70A
:1003700000C0089586B18F7B86B90895FBDF8AE8B7
:100380008A95F1F700C0E3DF8AE88A95F1F700C0AB
:10039000089586B1806486B90895FBDFDCDF8AE8C2
:1003A0008A95F1F700C00895CF93DF9377D0D82FC7
:1003B000C0E008C0D0FF02C0ECDF01C0DBDFCFDF50
:1003C000D695CF5FC830B0F3E4DFC9DFDF91CF91BE
:1003D0000895C1DF8AE88A95F1F700C0DADF8AE87C
:1003E0008A95F1F700C008951F93CF93DF93182FDC
:1003F000D62FC42FC3DF812FD7DF8D2FD5DF8C2FD2
:10040000D3DFE7DFDF91CF911F9108958FEF81B99F
:1004100083B912B890EC95B987B916B899B98BB968
:100420001AB80895E4E6F0E080818E7F8083EAE7E1
:10043000F0E0808180688083ADE7B0E08C911C9211
:10044000808184608083EBE7F0E080818860808336
:10045000089580937C00EAE7F0E0808180648083E7
:1004600080917A0086FDFCCF809179000895E4E6C2
:10047000F0E08081877F8083E1E8F0E08081886020
:1004800080831092890010928800AFE6B0E08C91D2
:1004900082608C938081836080830895282F2295C9
:1004A0002F7090E082959295907F9827807F982773
:1004B000922F982B292F2C7C30E035952795359558
:1004C00027959373892F90E0880F991F880F991FA4
:1004D000822B282F2A7A30E035952795857590E074
:1004E000880F991F822B089588ED86BF10926100B6
:1004F0000895FADF8BDF96DFBADF4FDF95DE789461
:1005000080E01BDF8093860140E066E088E86CDFD6
:1005100040E067E088E868DF40E062E088E864DFA8
:1005200088E097DF809384018BE093DF80938301E1
:100530008CE08FDF809382018DE08BDF809580934C
:10054000810110928501439B03C081E08093850166
:10055000449B03C082E080938501459B03C083E0F8
:10056000809385014091850160E088E83DDF4091FE
:10057000840142954F7061E088E836DF8091860102
:10058000809565D0482F62E088E82EDF8091830156
:1005900056D0482F63E088E827DF809182014FD052
:1005A000482F64E088E820DF8091810148D0482FFF
:1005B00065E088E819DF8091860160918501D7DDCB
:1005C0006091860180E0ABDEABCF1F920F920FB639
:1005D0000F9211248F939F9392B182E0892782B961
:1005E00080918001882319F08130F9F021C0229B8D
:1005F0001FC0219B0DC080918601853028F080911D
:10060000860185508093860181E08093800110C02F
:10061000809186018B3F28F4809186018B5F8093C7
:10062000860181E08093800103C0229B10928001AB
:100630009F918F910F900FBE0F901F9018958295EC
:100640008F70E82FF0E0E65EFE4F8081089586957A
:100650008695893208F088E30895991B79E004C0F3
:10066000991F961708F0961B881F7A95C9F78095F1
:060670000895F894FFCF8D
:1006760029013E0153016801564F4C554D453A201C
:10068600202000494E5055543A000001020304054B
:1006960006070E0D0C0B0A0908205B585D20205B2F
:1006A6005F5D20205B5F5D20205B5F5D2000205B3F
:1006B6005F5D20205B585D20205B5F5D20205B5FD7
:1006C6005D2000205B5F5D20205B5F5D20205B5826
:1006D6005D20205B5F5D2000205B5F5D20205B5F0F
:0E06E6005D20205B5F5D20205B585D200000E2
:00000001FF
