:1000000019C033C032C031C030C02FC02EC02DC087
:100010002CC0DAC22AC029C028C027C026C025C0EB
:1000200024C023C022C021C020C01FC01EC01DC0CC
:100030001CC01BC011241FBECFEFD2E0DEBFCDBF5E
:1000400011E0A0E0B1E0E0E6F6E002C005900D921C
:10005000AE36B107D9F721E0AEE6B1E001C01D929E
:10006000AD38B207E1F717D2F9C2CACF8AB18064BE
:100070008AB908958AB18F7B8AB908958AB1806858
:100080008AB908958AB18F778AB9089582B9F6DF5F
:1000900080E18A95F1F700C0F5DF80E18A95F1F7FC
:1000A00000C0F0DFE7DF12B80895CF93893531F053
:1000B000982F907FC82FC295C07F02C0CFEF9FEFCF
:1000C00092B9DCDF80E18A95F1F700C0DBDF80E1E7
:1000D0008A95F1F700C0C2B9D1DF80E18A95F1F7C6
:1000E00000C0D0DF80E18A95F1F700C0CBDFC2DF2E
:1000F00012B8CF91089582E0D8DF83EF91E00197A5
:10010000F1F700C000000895EF92FF920F931F9344
:10011000CF93DF937C01062F142FEDDFC0E0D0E0FA
:100120000FC0812FC2DF80E18A95F1F700C09EDF0A
:10013000F701EC0FFD1F8081B8DF9CDF1F5F219668
:10014000802F90E0C817D90764F3DF91CF911F91FA
:100150000F91FF90EF900895462F6CE073D280933B
:100160006F0194E1981B90936E011092770120E04B
:1001700030E00CC0E7E7F1E001900020E9F73197AB
:1001800089E590E0918380832F5F3F4F80916F01DD
:1001900090E02817390774F320E030E00CC0E7E75F
:1001A000F1E001900020E9F731978FE590E091832D
:1001B00080832F5F3F4F80916E0190E028173907B1
:1001C00074F3E42FF0E0EE0FFF1FE050FF4F80814B
:1001D000918190938C0180938B01E7E7F1E001908E
:1001E0000020E9F73197BF016757714040EC87E77E
:1001F00091E08ADF80918B0190918C01FC0101904C
:100200000020E9F73197BF01681B790B44ED7CDFD3
:1002100008952CDF33DF12B82FE986E891E02150F2
:1002200080409040E1F700C000002CDF23DF2FE981
:1002300086E891E0215080409040E1F700C0000046
:1002400080E324DF81EE94E00197F1F700C0000025
:1002500080E31CDF83EF91E00197F1F700C000001D
:1002600080E314DF83EF91E00197F1F700C0000015
:1002700080E20CDF83EF91E00197F1F700C000000E
:1002800088E213DF83EF91E00197F1F700C00000EF
:100290008CE00BDF83EF91E00197F1F700C00000E5
:1002A00081E003DF83EF91E00197F1F700C00000E8
:1002B00086E0FBDE83EF91E00197F1F700C00000DC
:1002C00082E0F3DE83EF91E00197F1F700C00000D8
:1002D0009FE32DE083E0915020408040E1F700C093
:1002E0000000E8E0F1E001900020E9F73197BF015C
:1002F0006850714040E888E091E006DFE3E1F1E01A
:1003000001900020E9F73197BF016351714044E942
:1003100083E191E0F9DE0895F999FECF1FBA81BD1E
:1003200060BD8FB384608FBB8FB382608FBB089535
:10033000F999FECF81BD8FB381608FBB80B50895E1
:1003400086B18F7786B9089586B1806886B9089599
:10035000FBDF81E28A95F1F70000F2DF81E28A9506
:10036000F1F70000089586B18F7B86B90895FBDF11
:1003700081E28A95F1F70000E3DF81E28A95F1F7E7
:100380000000089586B1806486B90895FBDFDCDF44
:1003900081E28A95F1F700000895CF93DF93EED0C4
:1003A000D82FC0E008C0D0FF02C0ECDF01C0DBDF07
:1003B000CFDFD695CF5FC830B0F3E4DFC9DFDF9180
:1003C000CF910895C1DF81E28A95F1F70000DADF6D
:1003D00081E28A95F1F7000008951F93CF93DF9390
:1003E000182FD62FC42FC3DF812FD7DF8D2FD5DF56
:1003F0008C2FD3DFE7DFDF91CF911F9108958FEF2F
:1004000081B983B912B890EC95B987B916B899B982
:100410008BB91AB80895E4E6F0E080818E7F80837E
:10042000EAE7F0E0808180688083ADE7B0E08C91FE
:100430001C92808184608083EBE7F0E0808188609B
:1004400080830895ECE7F0E09081892B8083EDE7CD
:10045000F0E080818E7F8083EAE7F0E08081806435
:100460008083809179000895E4E6F0E08081877FC1
:100470008083E1E8F0E080818860808310928900C9
:1004800010928800AFE6B0E08C9182608C938081FE
:10049000836080830895B3DFBEDFE6DF77DFB9DEF8
:1004A000789480E045DF8093750140E066E088E85D
:1004B00094DF40E067E088E890DF80917501BDD06F
:1004C000482F62E088E889DF88E0BCDF8093740110
:1004D0008BE0B8DF809373018CE0B4DF809372010E
:1004E0008DE0B0DF8093710138B188B1887098B128
:1004F000907128B1207232FF03C01092760111C0B2
:10050000882321F081E0809376010BC0992321F0AC
:1005100082E08093760105C0222319F083E0809366
:1005200076014091760160E088E857DF84E682D06A
:10053000482F61E088E851DF86E97FD0482F62E0EC
:1005400088E84BDF82E379D0482F63E088E845DF15
:1005500082E373D0482F64E088E83FDF82E36DD008
:10056000482F65E088E839DF609176018091750158
:10057000F3DD6091750180E0CFDEA6CF282F2295B4
:100580002F7090E082959295907F9827807F982792
:10059000922F982B292F2C7C30E035952795359577
:1005A00027959373892F90E0880F991F880F991FC3
:1005B000822B282F2A7A30E035952795857590E093
:1005C000880F991F822B08951F920F920FB60F92DA
:1005D00011248F939F9392B182E0892782B98091F1
:1005E0007001882319F08130D9F01DC0229B1BC0F7
:1005F000219B0BC080917501853018F08550809348
:10060000750181E0809370010EC0809175018B3F70
:1006100018F48B5F8093750181E08093700103C0B3
:10062000229B109270019F918F910F900FBE0F909F
:100630001F90189582958F7008958295869586955E
:1006400083700895991B79E004C0991F961708F0EC
:10065000961B881F7A95C9F780950895F894FFCF67
:100660001A012F0144015901564F4C554D453A206E
:10067000202000494E5055543A00205B585D202000
:100680005B5F5D20205B5F5D20205B5F5D20002065
:100690005B5F5D20205B585D20205B5F5D20205B01
:1006A0005F5D2000205B5F5D20205B5F5D20205B45
:1006B000585D20205B5F5D2000205B5F5D20205B3C
:0E06C0005F5D20205B5F5D20205B585D2000A9
:00000001FF
