S01D0000507261637469636520456E746572707269736520322E7372656349
S113000019C033C032C031C030C02FC02EC02DC083
S11300102CC09BC22AC029C028C027C026C025C026
S113002024C023C022C021C020C01FC01EC01DC0C8
S11300301CC01BC011241FBECFEFD2E0DEBFCDBF5A
S113004011E0A0E0B1E0E2EDF5E002C005900D9210
S1130050AE36B107D9F721E0AEE6B1E001C01D929A
S1130060AE38B207E1F7F4D1B2C2CACF8AB1806424
S11300708AB908958AB18F7B8AB908958AB1806854
S11300808AB908958AB18F778AB9089582B9F6DF5B
S113009080E18A95F1F700C0F5DF80E18A95F1F7F8
S11300A000C0F0DFE7DF12B80895CF93893531F04F
S11300B0982F907FC82FC295C07F02C0CFEF9FEFCB
S11300C092B9DCDF80E18A95F1F700C0DBDF80E1E3
S11300D08A95F1F700C0C2B9D1DF80E18A95F1F7C2
S11300E000C0D0DF80E18A95F1F700C0CBDFC2DF2A
S11300F012B8CF91089582E0D8DF83EF91E00197A1
S1130100F1F700C000000895EF92FF920F931F9340
S1130110CF93DF937C01062F142FEDDFC0E0D0E0F6
S11301200BC0812FC2DFA2DFF701EC0FFD1F80811E
S1130130BCDFA0DF1F5F2196802F90E0C817D9078E
S113014084F3DF91CF911F910F91FF90EF90089569
S1130150462F6CE030D280936F0194E1981B90930A
S11301606E011092780120E030E00CC0E8E7F1E085
S113017001900020E9F7319789E590E0918380832D
S11301802F5F3F4F80916F0190E02817390774F378
S113019020E030E00CC0E8E7F1E001900020E9F74E
S11301A031978FE590E0918380832F5F3F4F80915B
S11301B06E0190E02817390774F3E42FF0E0EE0F96
S11301C0FF1FE050FF4F8081918190938D018093B8
S11301D08C01E8E7F1E001900020E9F73197BF01D5
S11301E06857714040EC88E791E08EDF80918C0184
S11301F090918D01FC0101900020E9F73197BF0136
S1130200681B790B44ED80DF089530DF37DF12B8C7
S113021083ED90E30197F1F700C0000033DF2ADF9C
S113022080E334DF81EE94E00197F1F700C0000031
S113023080E32CDF83EF91E00197F1F700C0000029
S113024080E324DF83EF91E00197F1F700C0000021
S113025080E21CDF83EF91E00197F1F700C000001A
S113026088E223DF83EF91E00197F1F700C00000FB
S11302708CE01BDF83EF91E00197F1F700C00000F1
S113028081E013DF83EF91E00197F1F700C00000F4
S113029086E00BDF83EF91E00197F1F700C00000E7
S11302A082E003DF83EF91E00197F1F700C00000E3
S11302B09FE32DE083E0915020408040E1F700C0AF
S11302C00000E8E0F1E001900020E9F73197BF0178
S11302D06850714040E888E091E016DFE3E1F1E026
S11302E001900020E9F73197BF016351714044E95F
S11302F083E191E009DF089586B18F7B86B9089583
S113030086B1806486B90895FBDF81E28A95F1F7AE
S11303100000F2DF81E28A95F1F70000089586B1CA
S11303208F7786B90895FBDF81E28A95F1F70000A3
S1130330E3DF81E28A95F1F70000089586B18068D1
S113034086B90895FBDFDCDF81E28A95F1F70000CE
S11303500895CF93DF93D3D0D82FC0E008C0D0FF47
S113036002C0ECDF01C0DBDFCFDFD695CF5FC83042
S1130370B0F3E4DFC9DFDF91CF910895C1DF81E2FB
S11303808A95F1F70000DADF81E28A95F1F700003F
S113039008951F93CF93DF93182FD62FC42FC3DF55
S11303A0812FD7DF8D2FD5DF8C2FD3DFE7DFDF91D0
S11303B0CF911F9108958EEF81B98FEF83B912B851
S11303C090EC95B987B916B899B98BB91AB808954C
S11303D0E4E6F0E080818E7F8083EAE7F0E08081CC
S11303E080688083ADE7B0E08C911C92808184604A
S11303F08083EBE7F0E08081886080830895ECE7F8
S1130400F0E09081892B8083EDE7F0E080818E7F9E
S11304108083EAE7F0E080818064808380917900C2
S11304200895E4E6F0E08081877F8083E1E8F0E0EE
S11304308081886080831092890010928800AFE6E2
S1130440B0E08C9182608C93808183608083089576
S1130450B2DFBEDF77DFD9DEE4DF789488E0CFDF78
S1130460809374018BE0CBDF809373018CE0C7DF52
S1130470809372018DE0C3DF809371018AB18C7324
S113048080937601883061F018F4843031F013C021
S1130490803151F0803261F00EC0109277010BC0B0
S11304A081E08093770107C082E08093770103C0E5
S11304B083E0809377014091770160E088E869DF09
S11304C04091740161E088E864DF4091750162E065
S11304D088E85FDF4091730163E088E85ADF409168
S11304E0720164E088E855DF4091710165E088E8B5
S11304F050DF60917701809175012ADEAFCF282FFC
S113050022952F7090E082959295907F9827807F16
S11305109827922F982B292F2C7C30E035952795FE
S1130520359527959373892F90E0880F991F880F2D
S1130530991F822B282F2A7A30E0359527958575C7
S113054090E0880F991F822B08951F920F920FB687
S11305500F9211248F939F9392B182E0892782B9DD
S113056080917001882319F08130D9F01DC0229B3D
S11305701BC0219B0BC0809175018B3F18F48B5FCE
S11305808093750181E0809370010EC080917501A4
S1130590853018F085508093750181E08093700157
S11305A003C0229B109270019F918F910F900FBEF8
S11305B00F901F901895991B79E004C0991F961706
S11305C008F0961B881F7A95C9F780950895F894CA
S10505D0FFCF57
S11305D21A012F0144015901564F4C554D453A20F9
S11305E2202000494E5055543A00205B585D20208B
S11305F25B5F5D20205B5F5D20205B5F5D200020F0
S11306025B5F5D20205B585D20205B5F5D20205B8B
S11306125F5D2000205B5F5D20205B5F5D20205BCF
S1130622585D20205B5F5D2000205B5F5D20205BC6
S11106325F5D20205B5F5D20205B585D200033
S9030000FC
