:1000000019C020C01FC01EC01DC01CC01BC01AC00C
:1000100019C018C017C016C015C014C013C012C034
:1000200011C010C00FC00EC00DC00CC00BC00AC064
:1000300009C008C011241FBECFEFD2E0DEBFCDBF84
:10004000D9D0F1C0DDCF08958AB18F7B8AB90895E8
:100050008AB180688AB908958AB18F778AB908957C
:10006000CF93C82FF5DF80E18A95F1F700C0C2B9C0
:1000700080E18A95F1F700C0EFDFCF910895CF932B
:1000800083ED90E30197F1F700C00000DDDFE4DFCE
:100090008FEFE6DFD9DFE0DF8FECE2DFC0E005C005
:1000A0008FEDDEDF8FEBDCDFCF5FC230C8F38FEF89
:1000B000D7DF8FE7D5DF8FEFD3DF8FEED1DF8FEF85
:1000C000CFDF8FE9CDDFCF91089586B18F7B86B9E1
:1000D000089586B1806486B9089586B18F7786B910
:1000E000089586B1806886B90895FBDFF2DF81E16B
:1000F0008A95F1F700000895CF93DF93D82FEDDFB5
:1001000081E18A95F1F70000E0DF81E18A95F1F75E
:100110000000C0E011C0D0FF02C0E3DF01C0DDDF9E
:10012000D8DF81E18A95F1F70000CFDF81E18A9580
:10013000F1F70000D695CF5FC83068F3CEDFC9DF96
:1001400081E18A95F1F70000C0DF81E18A95F1F73E
:100150000000C7DF81E18A95F1F70000DF91CF91C0
:100160000895BFDFB6DF81E18A95F1F700000895B9
:10017000CF93DF93D62FC42FBFDF8D2FBDDF8C2F02
:10018000BBDFEFDFDF91CF9108958FEF81B983B9A6
:1001900012B890EC95B987B916B899B98BB91AB855
:1001A0000895E4E6F0E080818E7F8083EAE7F0E066
:1001B000808180688083ADE7B0E08C911C92808163
:1001C00084608083EBE7F0E080818860808308951D
:1001D000ECE7F0E09081892B8083EDE7F0E080810F
:1001E0008E7F8083EAE7F0E0808180648083809165
:1001F00079000895CADFD5DF78DF41DF88E0E8DFE6
:100200008BE0E6DF8CE0E4DF8DE0E2DF40E060E001
:1002100080E8AEDF83EC99E00197F1F700C00000C1
:0A0220008FEC11DFEBCFF894FFCF55
:00000001FF
